{
  "_format": "hh-sol-artifact-1",
  "contractName": "NFTMarket",
  "sourceName": "contracts/NFTMarket.sol",
  "abi": [
    {
      "inputs": [],
      "stateMutability": "nonpayable",
      "type": "constructor"
    },
    {
      "anonymous": false,
      "inputs": [
        {
          "indexed": true,
          "internalType": "address",
          "name": "owner",
          "type": "address"
        },
        {
          "indexed": true,
          "internalType": "address",
          "name": "approved",
          "type": "address"
        },
        {
          "indexed": true,
          "internalType": "uint256",
          "name": "tokenId",
          "type": "uint256"
        }
      ],
      "name": "Approval",
      "type": "event"
    },
    {
      "anonymous": false,
      "inputs": [
        {
          "indexed": true,
          "internalType": "address",
          "name": "owner",
          "type": "address"
        },
        {
          "indexed": true,
          "internalType": "address",
          "name": "operator",
          "type": "address"
        },
        {
          "indexed": false,
          "internalType": "bool",
          "name": "approved",
          "type": "bool"
        }
      ],
      "name": "ApprovalForAll",
      "type": "event"
    },
    {
      "anonymous": false,
      "inputs": [
        {
          "indexed": false,
          "internalType": "uint256",
          "name": "_fromTokenId",
          "type": "uint256"
        },
        {
          "indexed": false,
          "internalType": "uint256",
          "name": "_toTokenId",
          "type": "uint256"
        }
      ],
      "name": "BatchMetadataUpdate",
      "type": "event"
    },
    {
      "anonymous": false,
      "inputs": [
        {
          "indexed": false,
          "internalType": "uint256",
          "name": "_tokenId",
          "type": "uint256"
        }
      ],
      "name": "MetadataUpdate",
      "type": "event"
    },
    {
      "anonymous": false,
      "inputs": [
        {
          "indexed": false,
          "internalType": "uint256",
          "name": "tokenID",
          "type": "uint256"
        },
        {
          "indexed": false,
          "internalType": "address",
          "name": "from",
          "type": "address"
        },
        {
          "indexed": false,
          "internalType": "address",
          "name": "to",
          "type": "address"
        },
        {
          "indexed": false,
          "internalType": "string",
          "name": "tokenURI",
          "type": "string"
        },
        {
          "indexed": false,
          "internalType": "uint256",
          "name": "price",
          "type": "uint256"
        }
      ],
      "name": "NFTTransfer",
      "type": "event"
    },
    {
      "anonymous": false,
      "inputs": [
        {
          "indexed": true,
          "internalType": "address",
          "name": "previousOwner",
          "type": "address"
        },
        {
          "indexed": true,
          "internalType": "address",
          "name": "newOwner",
          "type": "address"
        }
      ],
      "name": "OwnershipTransferred",
      "type": "event"
    },
    {
      "anonymous": false,
      "inputs": [
        {
          "indexed": false,
          "internalType": "uint256",
          "name": "index",
          "type": "uint256"
        },
        {
          "indexed": false,
          "internalType": "string",
          "name": "tokenURI",
          "type": "string"
        }
      ],
      "name": "TokenURICreated",
      "type": "event"
    },
    {
      "anonymous": false,
      "inputs": [
        {
          "indexed": true,
          "internalType": "address",
          "name": "from",
          "type": "address"
        },
        {
          "indexed": true,
          "internalType": "address",
          "name": "to",
          "type": "address"
        },
        {
          "indexed": true,
          "internalType": "uint256",
          "name": "tokenId",
          "type": "uint256"
        }
      ],
      "name": "Transfer",
      "type": "event"
    },
    {
      "inputs": [
        {
          "internalType": "uint256",
          "name": "",
          "type": "uint256"
        }
      ],
      "name": "_creators",
      "outputs": [
        {
          "internalType": "address",
          "name": "",
          "type": "address"
        }
      ],
      "stateMutability": "view",
      "type": "function"
    },
    {
      "inputs": [
        {
          "internalType": "uint256",
          "name": "",
          "type": "uint256"
        }
      ],
      "name": "_intendedTokenURIs",
      "outputs": [
        {
          "internalType": "string",
          "name": "",
          "type": "string"
        }
      ],
      "stateMutability": "view",
      "type": "function"
    },
    {
      "inputs": [
        {
          "internalType": "uint256",
          "name": "",
          "type": "uint256"
        }
      ],
      "name": "_isFirstSale",
      "outputs": [
        {
          "internalType": "bool",
          "name": "",
          "type": "bool"
        }
      ],
      "stateMutability": "view",
      "type": "function"
    },
    {
      "inputs": [
        {
          "internalType": "uint256",
          "name": "",
          "type": "uint256"
        }
      ],
      "name": "_listings",
      "outputs": [
        {
          "internalType": "uint256",
          "name": "price",
          "type": "uint256"
        },
        {
          "internalType": "address",
          "name": "seller",
          "type": "address"
        }
      ],
      "stateMutability": "view",
      "type": "function"
    },
    {
      "inputs": [
        {
          "internalType": "address",
          "name": "to",
          "type": "address"
        },
        {
          "internalType": "uint256",
          "name": "tokenId",
          "type": "uint256"
        }
      ],
      "name": "approve",
      "outputs": [],
      "stateMutability": "nonpayable",
      "type": "function"
    },
    {
      "inputs": [
        {
          "internalType": "address",
          "name": "owner",
          "type": "address"
        }
      ],
      "name": "balanceOf",
      "outputs": [
        {
          "internalType": "uint256",
          "name": "",
          "type": "uint256"
        }
      ],
      "stateMutability": "view",
      "type": "function"
    },
    {
      "inputs": [
        {
          "internalType": "uint256",
          "name": "tokenID",
          "type": "uint256"
        }
      ],
      "name": "buyNFT",
      "outputs": [],
      "stateMutability": "payable",
      "type": "function"
    },
    {
      "inputs": [
        {
          "internalType": "uint256",
          "name": "tokenID",
          "type": "uint256"
        }
      ],
      "name": "cancelListingCollector",
      "outputs": [],
      "stateMutability": "nonpayable",
      "type": "function"
    },
    {
      "inputs": [
        {
          "internalType": "uint256",
          "name": "tokenID",
          "type": "uint256"
        }
      ],
      "name": "cancelListingCreator",
      "outputs": [],
      "stateMutability": "nonpayable",
      "type": "function"
    },
    {
      "inputs": [
        {
          "internalType": "string",
          "name": "tokenURI",
          "type": "string"
        }
      ],
      "name": "createNFT",
      "outputs": [],
      "stateMutability": "nonpayable",
      "type": "function"
    },
    {
      "inputs": [
        {
          "internalType": "uint256",
          "name": "",
          "type": "uint256"
        }
      ],
      "name": "createdTokenURIs",
      "outputs": [
        {
          "internalType": "string",
          "name": "",
          "type": "string"
        }
      ],
      "stateMutability": "view",
      "type": "function"
    },
    {
      "inputs": [
        {
          "internalType": "uint256",
          "name": "tokenId",
          "type": "uint256"
        }
      ],
      "name": "getApproved",
      "outputs": [
        {
          "internalType": "address",
          "name": "",
          "type": "address"
        }
      ],
      "stateMutability": "view",
      "type": "function"
    },
    {
      "inputs": [
        {
          "internalType": "uint256",
          "name": "index",
          "type": "uint256"
        }
      ],
      "name": "getCreatedTokenURI",
      "outputs": [
        {
          "internalType": "string",
          "name": "",
          "type": "string"
        }
      ],
      "stateMutability": "view",
      "type": "function"
    },
    {
      "inputs": [
        {
          "internalType": "uint256",
          "name": "tokenID",
          "type": "uint256"
        }
      ],
      "name": "getListing",
      "outputs": [
        {
          "internalType": "uint256",
          "name": "price",
          "type": "uint256"
        },
        {
          "internalType": "address",
          "name": "seller",
          "type": "address"
        }
      ],
      "stateMutability": "view",
      "type": "function"
    },
    {
      "inputs": [
        {
          "internalType": "address",
          "name": "owner",
          "type": "address"
        },
        {
          "internalType": "address",
          "name": "operator",
          "type": "address"
        }
      ],
      "name": "isApprovedForAll",
      "outputs": [
        {
          "internalType": "bool",
          "name": "",
          "type": "bool"
        }
      ],
      "stateMutability": "view",
      "type": "function"
    },
    {
      "inputs": [
        {
          "internalType": "uint256",
          "name": "tokenID",
          "type": "uint256"
        },
        {
          "internalType": "uint256",
          "name": "price",
          "type": "uint256"
        }
      ],
      "name": "listNFTCollector",
      "outputs": [],
      "stateMutability": "nonpayable",
      "type": "function"
    },
    {
      "inputs": [
        {
          "internalType": "uint256",
          "name": "tokenID",
          "type": "uint256"
        },
        {
          "internalType": "uint256",
          "name": "price",
          "type": "uint256"
        }
      ],
      "name": "listNFTCreator",
      "outputs": [],
      "stateMutability": "nonpayable",
      "type": "function"
    },
    {
      "inputs": [],
      "name": "name",
      "outputs": [
        {
          "internalType": "string",
          "name": "",
          "type": "string"
        }
      ],
      "stateMutability": "view",
      "type": "function"
    },
    {
      "inputs": [],
      "name": "owner",
      "outputs": [
        {
          "internalType": "address",
          "name": "",
          "type": "address"
        }
      ],
      "stateMutability": "view",
      "type": "function"
    },
    {
      "inputs": [
        {
          "internalType": "uint256",
          "name": "tokenId",
          "type": "uint256"
        }
      ],
      "name": "ownerOf",
      "outputs": [
        {
          "internalType": "address",
          "name": "",
          "type": "address"
        }
      ],
      "stateMutability": "view",
      "type": "function"
    },
    {
      "inputs": [],
      "name": "renounceOwnership",
      "outputs": [],
      "stateMutability": "nonpayable",
      "type": "function"
    },
    {
      "inputs": [
        {
          "internalType": "address",
          "name": "from",
          "type": "address"
        },
        {
          "internalType": "address",
          "name": "to",
          "type": "address"
        },
        {
          "internalType": "uint256",
          "name": "tokenId",
          "type": "uint256"
        }
      ],
      "name": "safeTransferFrom",
      "outputs": [],
      "stateMutability": "nonpayable",
      "type": "function"
    },
    {
      "inputs": [
        {
          "internalType": "address",
          "name": "from",
          "type": "address"
        },
        {
          "internalType": "address",
          "name": "to",
          "type": "address"
        },
        {
          "internalType": "uint256",
          "name": "tokenId",
          "type": "uint256"
        },
        {
          "internalType": "bytes",
          "name": "data",
          "type": "bytes"
        }
      ],
      "name": "safeTransferFrom",
      "outputs": [],
      "stateMutability": "nonpayable",
      "type": "function"
    },
    {
      "inputs": [
        {
          "internalType": "address",
          "name": "operator",
          "type": "address"
        },
        {
          "internalType": "bool",
          "name": "approved",
          "type": "bool"
        }
      ],
      "name": "setApprovalForAll",
      "outputs": [],
      "stateMutability": "nonpayable",
      "type": "function"
    },
    {
      "inputs": [
        {
          "internalType": "bytes4",
          "name": "interfaceId",
          "type": "bytes4"
        }
      ],
      "name": "supportsInterface",
      "outputs": [
        {
          "internalType": "bool",
          "name": "",
          "type": "bool"
        }
      ],
      "stateMutability": "view",
      "type": "function"
    },
    {
      "inputs": [],
      "name": "symbol",
      "outputs": [
        {
          "internalType": "string",
          "name": "",
          "type": "string"
        }
      ],
      "stateMutability": "view",
      "type": "function"
    },
    {
      "inputs": [
        {
          "internalType": "uint256",
          "name": "tokenId",
          "type": "uint256"
        }
      ],
      "name": "tokenURI",
      "outputs": [
        {
          "internalType": "string",
          "name": "",
          "type": "string"
        }
      ],
      "stateMutability": "view",
      "type": "function"
    },
    {
      "inputs": [
        {
          "internalType": "address",
          "name": "from",
          "type": "address"
        },
        {
          "internalType": "address",
          "name": "to",
          "type": "address"
        },
        {
          "internalType": "uint256",
          "name": "tokenId",
          "type": "uint256"
        }
      ],
      "name": "transferFrom",
      "outputs": [],
      "stateMutability": "nonpayable",
      "type": "function"
    },
    {
      "inputs": [
        {
          "internalType": "address",
          "name": "newOwner",
          "type": "address"
        }
      ],
      "name": "transferOwnership",
      "outputs": [],
      "stateMutability": "nonpayable",
      "type": "function"
    },
    {
      "inputs": [],
      "name": "withdrawFunds",
      "outputs": [],
      "stateMutability": "nonpayable",
      "type": "function"
    }
  ],
  "bytecode": "0x60806040523480156200001157600080fd5b506040518060400160405280600d81526020017f4172656c6c7320417373657473000000000000000000000000000000000000008152506040518060400160405280600481526020017f415341540000000000000000000000000000000000000000000000000000000081525081600090816200008f919062000412565b508060019081620000a1919062000412565b505050620000c4620000b8620000ca60201b60201c565b620000d260201b60201c565b620004f9565b600033905090565b6000600760009054906101000a900473ffffffffffffffffffffffffffffffffffffffff16905081600760006101000a81548173ffffffffffffffffffffffffffffffffffffffff021916908373ffffffffffffffffffffffffffffffffffffffff1602179055508173ffffffffffffffffffffffffffffffffffffffff168173ffffffffffffffffffffffffffffffffffffffff167f8be0079c531659141344cd1fd0a4f28419497f9722a3daafe3b4186f6b6457e060405160405180910390a35050565b600081519050919050565b7f4e487b7100000000000000000000000000000000000000000000000000000000600052604160045260246000fd5b7f4e487b7100000000000000000000000000000000000000000000000000000000600052602260045260246000fd5b600060028204905060018216806200021a57607f821691505b60208210810362000230576200022f620001d2565b5b50919050565b60008190508160005260206000209050919050565b60006020601f8301049050919050565b600082821b905092915050565b6000600883026200029a7fffffffffffffffffffffffffffffffffffffffffffffffffffffffffffffffff826200025b565b620002a686836200025b565b95508019841693508086168417925050509392505050565b6000819050919050565b6000819050919050565b6000620002f3620002ed620002e784620002be565b620002c8565b620002be565b9050919050565b6000819050919050565b6200030f83620002d2565b620003276200031e82620002fa565b84845462000268565b825550505050565b600090565b6200033e6200032f565b6200034b81848462000304565b505050565b5b8181101562000373576200036760008262000334565b60018101905062000351565b5050565b601f821115620003c2576200038c8162000236565b62000397846200024b565b81016020851015620003a7578190505b620003bf620003b6856200024b565b83018262000350565b50505b505050565b600082821c905092915050565b6000620003e760001984600802620003c7565b1980831691505092915050565b6000620004028383620003d4565b9150826002028217905092915050565b6200041d8262000198565b67ffffffffffffffff811115620004395762000438620001a3565b5b62000445825462000201565b6200045282828562000377565b600060209050601f8311600181146200048a576000841562000475578287015190505b620004818582620003f4565b865550620004f1565b601f1984166200049a8662000236565b60005b82811015620004c4578489015182556001820191506020850194506020810190506200049d565b86831015620004e45784890151620004e0601f891682620003d4565b8355505b6001600288020188555050505b505050505050565b614e6180620005096000396000f3fe6080604052600436106101cd5760003560e01c8063715018a6116100f7578063c853ef5711610095578063df76dbc911610064578063df76dbc9146106ae578063e985e9c5146106ec578063f2fde38b14610729578063f3a151dc14610752576101cd565b8063c853ef57146105e2578063c87b56dd1461061f578063ceeef84a1461065c578063da2ed03e14610685576101cd565b80638da5cb5b116100d15780638da5cb5b1461053a57806395d89b4114610565578063a22cb46514610590578063b88d4fde146105b9576101cd565b8063715018a6146104a957806379c6a02d146104c05780637d175bdd146104fd576101cd565b806324600fc31161016f5780634816edf41161013e5780634816edf4146103d657806351ed8288146104135780636352211e1461042f57806370a082311461046c576101cd565b806324600fc3146103445780633b436d6c1461035b57806342842e0e14610384578063455d836d146103ad576101cd565b8063081812fc116101ab578063081812fc14610277578063095ea7b3146102b4578063107a274a146102dd57806323b872dd1461031b576101cd565b806301ffc9a7146101d2578063041281011461020f57806306fdde031461024c575b600080fd5b3480156101de57600080fd5b506101f960048036038101906101f4919061331b565b61077b565b6040516102069190613363565b60405180910390f35b34801561021b57600080fd5b50610236600480360381019061023191906133b4565b6107dc565b6040516102439190613471565b60405180910390f35b34801561025857600080fd5b5061026161087c565b60405161026e9190613471565b60405180910390f35b34801561028357600080fd5b5061029e600480360381019061029991906133b4565b61090e565b6040516102ab91906134d4565b60405180910390f35b3480156102c057600080fd5b506102db60048036038101906102d6919061351b565b610954565b005b3480156102e957600080fd5b5061030460048036038101906102ff91906133b4565b610a6b565b60405161031292919061356a565b60405180910390f35b34801561032757600080fd5b50610342600480360381019061033d9190613593565b610ab9565b005b34801561035057600080fd5b50610359610b19565b005b34801561036757600080fd5b50610382600480360381019061037d91906133b4565b610bba565b005b34801561039057600080fd5b506103ab60048036038101906103a69190613593565b610db6565b005b3480156103b957600080fd5b506103d460048036038101906103cf91906133b4565b610dd6565b005b3480156103e257600080fd5b506103fd60048036038101906103f891906133b4565b610ffd565b60405161040a91906134d4565b60405180910390f35b61042d600480360381019061042891906133b4565b611030565b005b34801561043b57600080fd5b50610456600480360381019061045191906133b4565b611565565b60405161046391906134d4565b60405180910390f35b34801561047857600080fd5b50610493600480360381019061048e91906135e6565b6115eb565b6040516104a09190613613565b60405180910390f35b3480156104b557600080fd5b506104be6116a2565b005b3480156104cc57600080fd5b506104e760048036038101906104e291906133b4565b6116b6565b6040516104f49190613363565b60405180910390f35b34801561050957600080fd5b50610524600480360381019061051f91906133b4565b6116d6565b6040516105319190613471565b60405180910390f35b34801561054657600080fd5b5061054f6117cd565b60405161055c91906134d4565b60405180910390f35b34801561057157600080fd5b5061057a6117f7565b6040516105879190613471565b60405180910390f35b34801561059c57600080fd5b506105b760048036038101906105b2919061365a565b611889565b005b3480156105c557600080fd5b506105e060048036038101906105db91906137cf565b61189f565b005b3480156105ee57600080fd5b50610609600480360381019061060491906133b4565b611901565b6040516106169190613471565b60405180910390f35b34801561062b57600080fd5b50610646600480360381019061064191906133b4565b6119ad565b6040516106539190613471565b60405180910390f35b34801561066857600080fd5b50610683600480360381019061067e9190613852565b611abf565b005b34801561069157600080fd5b506106ac60048036038101906106a79190613933565b611c5f565b005b3480156106ba57600080fd5b506106d560048036038101906106d091906133b4565b611de0565b6040516106e392919061356a565b60405180910390f35b3480156106f857600080fd5b50610713600480360381019061070e919061397c565b611e24565b6040516107209190613363565b60405180910390f35b34801561073557600080fd5b50610750600480360381019061074b91906135e6565b611eb8565b005b34801561075e57600080fd5b5061077960048036038101906107749190613852565b611f3b565b005b6000634906490660e01b7bffffffffffffffffffffffffffffffffffffffffffffffffffffffff1916827bffffffffffffffffffffffffffffffffffffffffffffffffffffffff191614806107d557506107d482612106565b5b9050919050565b600a60205280600052604060002060009150905080546107fb906139eb565b80601f0160208091040260200160405190810160405280929190818152602001828054610827906139eb565b80156108745780601f1061084957610100808354040283529160200191610874565b820191906000526020600020905b81548152906001019060200180831161085757829003601f168201915b505050505081565b60606000805461088b906139eb565b80601f01602080910402602001604051908101604052809291908181526020018280546108b7906139eb565b80156109045780601f106108d957610100808354040283529160200191610904565b820191906000526020600020905b8154815290600101906020018083116108e757829003601f168201915b5050505050905090565b6000610919826121e8565b6004600083815260200190815260200160002060009054906101000a900473ffffffffffffffffffffffffffffffffffffffff169050919050565b600061095f82611565565b90508073ffffffffffffffffffffffffffffffffffffffff168373ffffffffffffffffffffffffffffffffffffffff16036109cf576040517f08c379a00000000000000000000000000000000000000000000000000000000081526004016109c690613a8e565b60405180910390fd5b8073ffffffffffffffffffffffffffffffffffffffff166109ee612233565b73ffffffffffffffffffffffffffffffffffffffff161480610a1d5750610a1c81610a17612233565b611e24565b5b610a5c576040517f08c379a0000000000000000000000000000000000000000000000000000000008152600401610a5390613b20565b60405180910390fd5b610a66838361223b565b505050565b600080600060096000858152602001908152602001600020905080600001548160010160009054906101000a900473ffffffffffffffffffffffffffffffffffffffff169250925050915091565b610aca610ac4612233565b826122f4565b610b09576040517f08c379a0000000000000000000000000000000000000000000000000000000008152600401610b0090613bb2565b60405180910390fd5b610b14838383612389565b505050565b610b21612682565b600047905060008111610b69576040517f08c379a0000000000000000000000000000000000000000000000000000000008152600401610b6090613c1e565b60405180910390fd5b610b716117cd565b73ffffffffffffffffffffffffffffffffffffffff166108fc829081150290604051600060405180830381858888f19350505050158015610bb6573d6000803e3d6000fd5b5050565b600060096000838152602001908152602001600020604051806040016040529081600082015481526020016001820160009054906101000a900473ffffffffffffffffffffffffffffffffffffffff1673ffffffffffffffffffffffffffffffffffffffff1673ffffffffffffffffffffffffffffffffffffffff168152505090506000816000015111610c83576040517f08c379a0000000000000000000000000000000000000000000000000000000008152600401610c7a90613cb0565b60405180910390fd5b3373ffffffffffffffffffffffffffffffffffffffff16610ca383611565565b73ffffffffffffffffffffffffffffffffffffffff1614610cf9576040517f08c379a0000000000000000000000000000000000000000000000000000000008152600401610cf090613d42565b60405180910390fd5b3373ffffffffffffffffffffffffffffffffffffffff16816020015173ffffffffffffffffffffffffffffffffffffffff1614610d6b576040517f08c379a0000000000000000000000000000000000000000000000000000000008152600401610d6290613d42565b60405180910390fd5b610d7482612700565b7f705332a8918666802fc1504f63ff1f002a5f6cedd30d59ad7ae0b5281aeb8dca8230336000604051610daa9493929190613dcd565b60405180910390a15050565b610dd18383836040518060200160405280600081525061189f565b505050565b600060096000838152602001908152602001600020604051806040016040529081600082015481526020016001820160009054906101000a900473ffffffffffffffffffffffffffffffffffffffff1673ffffffffffffffffffffffffffffffffffffffff1673ffffffffffffffffffffffffffffffffffffffff168152505090506000816000015111610e9f576040517f08c379a0000000000000000000000000000000000000000000000000000000008152600401610e9690613cb0565b60405180910390fd5b3373ffffffffffffffffffffffffffffffffffffffff16600b600084815260200190815260200160002060009054906101000a900473ffffffffffffffffffffffffffffffffffffffff1673ffffffffffffffffffffffffffffffffffffffff1614610f40576040517f08c379a0000000000000000000000000000000000000000000000000000000008152600401610f3790613e97565b60405180910390fd5b3373ffffffffffffffffffffffffffffffffffffffff16816020015173ffffffffffffffffffffffffffffffffffffffff1614610fb2576040517f08c379a0000000000000000000000000000000000000000000000000000000008152600401610fa990613f29565b60405180910390fd5b610fbb82612700565b7f705332a8918666802fc1504f63ff1f002a5f6cedd30d59ad7ae0b5281aeb8dca8230336000604051610ff19493929190613dcd565b60405180910390a15050565b600b6020528060005260406000206000915054906101000a900473ffffffffffffffffffffffffffffffffffffffff1681565b600060096000838152602001908152602001600020604051806040016040529081600082015481526020016001820160009054906101000a900473ffffffffffffffffffffffffffffffffffffffff1673ffffffffffffffffffffffffffffffffffffffff1673ffffffffffffffffffffffffffffffffffffffff1681525050905060008160000151116110f9576040517f08c379a00000000000000000000000000000000000000000000000000000000081526004016110f090613cb0565b60405180910390fd5b8060000151341461113f576040517f08c379a000000000000000000000000000000000000000000000000000000000815260040161113690613f95565b60405180910390fd5b60006009600084815260200190815260200160002060010160009054906101000a900473ffffffffffffffffffffffffffffffffffffffff1690506000600b600085815260200190815260200160002060009054906101000a900473ffffffffffffffffffffffffffffffffffffffff1690506111bb84612700565b600c600085815260200190815260200160002060009054906101000a900460ff16611350576111ea3385612775565b61128f84600a6000878152602001908152602001600020805461120c906139eb565b80601f0160208091040260200160405190810160405280929190818152602001828054611238906139eb565b80156112855780601f1061125a57610100808354040283529160200191611285565b820191906000526020600020905b81548152906001019060200180831161126857829003601f168201915b5050505050612992565b600a600085815260200190815260200160002060006112ae9190613252565b8073ffffffffffffffffffffffffffffffffffffffff166108fc6112f360646112e560618860000151612a3690919063ffffffff16565b612a4c90919063ffffffff16565b9081150290604051600060405180830381858888f1935050505015801561131e573d6000803e3d6000fd5b506001600c600086815260200190815260200160002060006101000a81548160ff021916908315150217905550611521565b60003073ffffffffffffffffffffffffffffffffffffffff16636352211e866040518263ffffffff1660e01b815260040161138b9190613613565b602060405180830381865afa1580156113a8573d6000803e3d6000fd5b505050506040513d601f19601f820116820180604052508101906113cc9190613fca565b90503073ffffffffffffffffffffffffffffffffffffffff166323b872dd8233886040518463ffffffff1660e01b815260040161140b93929190613ff7565b600060405180830381600087803b15801561142557600080fd5b505af1158015611439573d6000803e3d6000fd5b505050508173ffffffffffffffffffffffffffffffffffffffff166108fc611482606461147460288960000151612a3690919063ffffffff16565b612a4c90919063ffffffff16565b9081150290604051600060405180830381858888f193505050501580156114ad573d6000803e3d6000fd5b508273ffffffffffffffffffffffffffffffffffffffff166108fc6114f360646114e560398960000151612a3690919063ffffffff16565b612a4c90919063ffffffff16565b9081150290604051600060405180830381858888f1935050505015801561151e573d6000803e3d6000fd5b50505b7f705332a8918666802fc1504f63ff1f002a5f6cedd30d59ad7ae0b5281aeb8dca84303360006040516115579493929190613dcd565b60405180910390a150505050565b60008061157183612a62565b9050600073ffffffffffffffffffffffffffffffffffffffff168173ffffffffffffffffffffffffffffffffffffffff16036115e2576040517f08c379a00000000000000000000000000000000000000000000000000000000081526004016115d99061407a565b60405180910390fd5b80915050919050565b60008073ffffffffffffffffffffffffffffffffffffffff168273ffffffffffffffffffffffffffffffffffffffff160361165b576040517f08c379a00000000000000000000000000000000000000000000000000000000081526004016116529061410c565b60405180910390fd5b600360008373ffffffffffffffffffffffffffffffffffffffff1673ffffffffffffffffffffffffffffffffffffffff168152602001908152602001600020549050919050565b6116aa612682565b6116b46000612a9f565b565b600c6020528060005260406000206000915054906101000a900460ff1681565b6060600d80549050821061171f576040517f08c379a000000000000000000000000000000000000000000000000000000000815260040161171690614178565b60405180910390fd5b600d828154811061173357611732614198565b5b906000526020600020018054611748906139eb565b80601f0160208091040260200160405190810160405280929190818152602001828054611774906139eb565b80156117c15780601f10611796576101008083540402835291602001916117c1565b820191906000526020600020905b8154815290600101906020018083116117a457829003601f168201915b50505050509050919050565b6000600760009054906101000a900473ffffffffffffffffffffffffffffffffffffffff16905090565b606060018054611806906139eb565b80601f0160208091040260200160405190810160405280929190818152602001828054611832906139eb565b801561187f5780601f106118545761010080835404028352916020019161187f565b820191906000526020600020905b81548152906001019060200180831161186257829003601f168201915b5050505050905090565b61189b611894612233565b8383612b65565b5050565b6118b06118aa612233565b836122f4565b6118ef576040517f08c379a00000000000000000000000000000000000000000000000000000000081526004016118e690613bb2565b60405180910390fd5b6118fb84848484612cd1565b50505050565b600d818154811061191157600080fd5b90600052602060002001600091509050805461192c906139eb565b80601f0160208091040260200160405190810160405280929190818152602001828054611958906139eb565b80156119a55780601f1061197a576101008083540402835291602001916119a5565b820191906000526020600020905b81548152906001019060200180831161198857829003601f168201915b505050505081565b60606119b8826121e8565b60006006600084815260200190815260200160002080546119d8906139eb565b80601f0160208091040260200160405190810160405280929190818152602001828054611a04906139eb565b8015611a515780601f10611a2657610100808354040283529160200191611a51565b820191906000526020600020905b815481529060010190602001808311611a3457829003601f168201915b505050505090506000611a62612d2d565b90506000815103611a77578192505050611aba565b600082511115611aac578082604051602001611a94929190614203565b60405160208183030381529060405292505050611aba565b611ab584612d44565b925050505b919050565b60008111611b02576040517f08c379a0000000000000000000000000000000000000000000000000000000008152600401611af990614299565b60405180910390fd5b3373ffffffffffffffffffffffffffffffffffffffff16611b2283611565565b73ffffffffffffffffffffffffffffffffffffffff1614611b78576040517f08c379a0000000000000000000000000000000000000000000000000000000008152600401611b6f9061432b565b60405180910390fd5b60405180604001604052808281526020013373ffffffffffffffffffffffffffffffffffffffff16815250600960008481526020019081526020016000206000820151816000015560208201518160010160006101000a81548173ffffffffffffffffffffffffffffffffffffffff021916908373ffffffffffffffffffffffffffffffffffffffff1602179055509050507f705332a8918666802fc1504f63ff1f002a5f6cedd30d59ad7ae0b5281aeb8dca823330600a600087815260200190815260200160002085604051611c539594939291906143e4565b60405180910390a15050565b600d81908060018154018082558091505060019003906000526020600020016000909190919091509081611c9391906145cb565b5060006001600d80549050611ca891906146cc565b9050611cb46008612dac565b6000611cc06008612dc2565b905082600a60008381526020019081526020016000209081611ce291906145cb565b5033600b600083815260200190815260200160002060006101000a81548173ffffffffffffffffffffffffffffffffffffffff021916908373ffffffffffffffffffffffffffffffffffffffff1602179055506000600c600083815260200190815260200160002060006101000a81548160ff0219169083151502179055507f4c582017928a1bb7075268e9b0ab7e47ccf1bc5cb7638da3e8f97b3cdcc887e68284604051611d92929190614700565b60405180910390a17f705332a8918666802fc1504f63ff1f002a5f6cedd30d59ad7ae0b5281aeb8dca81600033866000604051611dd3959493929190614730565b60405180910390a1505050565b60096020528060005260406000206000915090508060000154908060010160009054906101000a900473ffffffffffffffffffffffffffffffffffffffff16905082565b6000600560008473ffffffffffffffffffffffffffffffffffffffff1673ffffffffffffffffffffffffffffffffffffffff16815260200190815260200160002060008373ffffffffffffffffffffffffffffffffffffffff1673ffffffffffffffffffffffffffffffffffffffff16815260200190815260200160002060009054906101000a900460ff16905092915050565b611ec0612682565b600073ffffffffffffffffffffffffffffffffffffffff168173ffffffffffffffffffffffffffffffffffffffff1603611f2f576040517f08c379a0000000000000000000000000000000000000000000000000000000008152600401611f26906147fc565b60405180910390fd5b611f3881612a9f565b50565b60008111611f7e576040517f08c379a0000000000000000000000000000000000000000000000000000000008152600401611f7590614299565b60405180910390fd5b3373ffffffffffffffffffffffffffffffffffffffff16600b600084815260200190815260200160002060009054906101000a900473ffffffffffffffffffffffffffffffffffffffff1673ffffffffffffffffffffffffffffffffffffffff161461201f576040517f08c379a00000000000000000000000000000000000000000000000000000000081526004016120169061488e565b60405180910390fd5b60405180604001604052808281526020013373ffffffffffffffffffffffffffffffffffffffff16815250600960008481526020019081526020016000206000820151816000015560208201518160010160006101000a81548173ffffffffffffffffffffffffffffffffffffffff021916908373ffffffffffffffffffffffffffffffffffffffff1602179055509050507f705332a8918666802fc1504f63ff1f002a5f6cedd30d59ad7ae0b5281aeb8dca823330600a6000878152602001908152602001600020856040516120fa9594939291906143e4565b60405180910390a15050565b60007f80ac58cd000000000000000000000000000000000000000000000000000000007bffffffffffffffffffffffffffffffffffffffffffffffffffffffff1916827bffffffffffffffffffffffffffffffffffffffffffffffffffffffff191614806121d157507f5b5e139f000000000000000000000000000000000000000000000000000000007bffffffffffffffffffffffffffffffffffffffffffffffffffffffff1916827bffffffffffffffffffffffffffffffffffffffffffffffffffffffff1916145b806121e157506121e082612dd0565b5b9050919050565b6121f181612e3a565b612230576040517f08c379a00000000000000000000000000000000000000000000000000000000081526004016122279061407a565b60405180910390fd5b50565b600033905090565b816004600083815260200190815260200160002060006101000a81548173ffffffffffffffffffffffffffffffffffffffff021916908373ffffffffffffffffffffffffffffffffffffffff160217905550808273ffffffffffffffffffffffffffffffffffffffff166122ae83611565565b73ffffffffffffffffffffffffffffffffffffffff167f8c5be1e5ebec7d5bd14f71427d1e84f3dd0314c0f7b2291e5b200ac8c7c3b92560405160405180910390a45050565b60008061230083611565565b90508073ffffffffffffffffffffffffffffffffffffffff168473ffffffffffffffffffffffffffffffffffffffff16148061234257506123418185611e24565b5b8061238057508373ffffffffffffffffffffffffffffffffffffffff166123688461090e565b73ffffffffffffffffffffffffffffffffffffffff16145b91505092915050565b8273ffffffffffffffffffffffffffffffffffffffff166123a982611565565b73ffffffffffffffffffffffffffffffffffffffff16146123ff576040517f08c379a00000000000000000000000000000000000000000000000000000000081526004016123f690614920565b60405180910390fd5b600073ffffffffffffffffffffffffffffffffffffffff168273ffffffffffffffffffffffffffffffffffffffff160361246e576040517f08c379a0000000000000000000000000000000000000000000000000000000008152600401612465906149b2565b60405180910390fd5b61247b8383836001612e7b565b8273ffffffffffffffffffffffffffffffffffffffff1661249b82611565565b73ffffffffffffffffffffffffffffffffffffffff16146124f1576040517f08c379a00000000000000000000000000000000000000000000000000000000081526004016124e890614920565b60405180910390fd5b6004600082815260200190815260200160002060006101000a81549073ffffffffffffffffffffffffffffffffffffffff02191690556001600360008573ffffffffffffffffffffffffffffffffffffffff1673ffffffffffffffffffffffffffffffffffffffff168152602001908152602001600020600082825403925050819055506001600360008473ffffffffffffffffffffffffffffffffffffffff1673ffffffffffffffffffffffffffffffffffffffff16815260200190815260200160002060008282540192505081905550816002600083815260200190815260200160002060006101000a81548173ffffffffffffffffffffffffffffffffffffffff021916908373ffffffffffffffffffffffffffffffffffffffff160217905550808273ffffffffffffffffffffffffffffffffffffffff168473ffffffffffffffffffffffffffffffffffffffff167fddf252ad1be2c89b69c2b068fc378daa952ba7f163c4a11628f55a4df523b3ef60405160405180910390a461267d8383836001612e81565b505050565b61268a612233565b73ffffffffffffffffffffffffffffffffffffffff166126a86117cd565b73ffffffffffffffffffffffffffffffffffffffff16146126fe576040517f08c379a00000000000000000000000000000000000000000000000000000000081526004016126f590614a1e565b60405180910390fd5b565b6000600960008381526020019081526020016000206000018190555060006009600083815260200190815260200160002060010160006101000a81548173ffffffffffffffffffffffffffffffffffffffff021916908373ffffffffffffffffffffffffffffffffffffffff16021790555050565b600073ffffffffffffffffffffffffffffffffffffffff168273ffffffffffffffffffffffffffffffffffffffff16036127e4576040517f08c379a00000000000000000000000000000000000000000000000000000000081526004016127db90614a8a565b60405180910390fd5b6127ed81612e3a565b1561282d576040517f08c379a000000000000000000000000000000000000000000000000000000000815260040161282490614af6565b60405180910390fd5b61283b600083836001612e7b565b61284481612e3a565b15612884576040517f08c379a000000000000000000000000000000000000000000000000000000000815260040161287b90614af6565b60405180910390fd5b6001600360008473ffffffffffffffffffffffffffffffffffffffff1673ffffffffffffffffffffffffffffffffffffffff16815260200190815260200160002060008282540192505081905550816002600083815260200190815260200160002060006101000a81548173ffffffffffffffffffffffffffffffffffffffff021916908373ffffffffffffffffffffffffffffffffffffffff160217905550808273ffffffffffffffffffffffffffffffffffffffff16600073ffffffffffffffffffffffffffffffffffffffff167fddf252ad1be2c89b69c2b068fc378daa952ba7f163c4a11628f55a4df523b3ef60405160405180910390a461298e600083836001612e81565b5050565b61299b82612e3a565b6129da576040517f08c379a00000000000000000000000000000000000000000000000000000000081526004016129d190614b88565b60405180910390fd5b806006600084815260200190815260200160002090816129fa91906145cb565b507ff8e1a15aba9398e019f0b49df1a4fde98ee17ae345cb5f6b5e2c27f5033e8ce782604051612a2a9190613613565b60405180910390a15050565b60008183612a449190614ba8565b905092915050565b60008183612a5a9190614c19565b905092915050565b60006002600083815260200190815260200160002060009054906101000a900473ffffffffffffffffffffffffffffffffffffffff169050919050565b6000600760009054906101000a900473ffffffffffffffffffffffffffffffffffffffff16905081600760006101000a81548173ffffffffffffffffffffffffffffffffffffffff021916908373ffffffffffffffffffffffffffffffffffffffff1602179055508173ffffffffffffffffffffffffffffffffffffffff168173ffffffffffffffffffffffffffffffffffffffff167f8be0079c531659141344cd1fd0a4f28419497f9722a3daafe3b4186f6b6457e060405160405180910390a35050565b8173ffffffffffffffffffffffffffffffffffffffff168373ffffffffffffffffffffffffffffffffffffffff1603612bd3576040517f08c379a0000000000000000000000000000000000000000000000000000000008152600401612bca90614c96565b60405180910390fd5b80600560008573ffffffffffffffffffffffffffffffffffffffff1673ffffffffffffffffffffffffffffffffffffffff16815260200190815260200160002060008473ffffffffffffffffffffffffffffffffffffffff1673ffffffffffffffffffffffffffffffffffffffff16815260200190815260200160002060006101000a81548160ff0219169083151502179055508173ffffffffffffffffffffffffffffffffffffffff168373ffffffffffffffffffffffffffffffffffffffff167f17307eab39ab6107e8899845ad3d59bd9653f200f220920489ca2b5937696c3183604051612cc49190613363565b60405180910390a3505050565b612cdc848484612389565b612ce884848484612e87565b612d27576040517f08c379a0000000000000000000000000000000000000000000000000000000008152600401612d1e90614d28565b60405180910390fd5b50505050565b606060405180602001604052806000815250905090565b6060612d4f826121e8565b6000612d59612d2d565b90506000815111612d795760405180602001604052806000815250612da4565b80612d838461300e565b604051602001612d94929190614203565b6040516020818303038152906040525b915050919050565b6001816000016000828254019250508190555050565b600081600001549050919050565b60007f01ffc9a7000000000000000000000000000000000000000000000000000000007bffffffffffffffffffffffffffffffffffffffffffffffffffffffff1916827bffffffffffffffffffffffffffffffffffffffffffffffffffffffff1916149050919050565b60008073ffffffffffffffffffffffffffffffffffffffff16612e5c83612a62565b73ffffffffffffffffffffffffffffffffffffffff1614159050919050565b50505050565b50505050565b6000612ea88473ffffffffffffffffffffffffffffffffffffffff166130dc565b15613001578373ffffffffffffffffffffffffffffffffffffffff1663150b7a02612ed1612233565b8786866040518563ffffffff1660e01b8152600401612ef39493929190614d9d565b6020604051808303816000875af1925050508015612f2f57506040513d601f19601f82011682018060405250810190612f2c9190614dfe565b60015b612fb1573d8060008114612f5f576040519150601f19603f3d011682016040523d82523d6000602084013e612f64565b606091505b506000815103612fa9576040517f08c379a0000000000000000000000000000000000000000000000000000000008152600401612fa090614d28565b60405180910390fd5b805181602001fd5b63150b7a0260e01b7bffffffffffffffffffffffffffffffffffffffffffffffffffffffff1916817bffffffffffffffffffffffffffffffffffffffffffffffffffffffff191614915050613006565b600190505b949350505050565b60606000600161301d846130ff565b01905060008167ffffffffffffffff81111561303c5761303b6136a4565b5b6040519080825280601f01601f19166020018201604052801561306e5781602001600182028036833780820191505090505b509050600082602001820190505b6001156130d1578080600190039150507f3031323334353637383961626364656600000000000000000000000000000000600a86061a8153600a85816130c5576130c4614bea565b5b0494506000850361307c575b819350505050919050565b6000808273ffffffffffffffffffffffffffffffffffffffff163b119050919050565b600080600090507a184f03e93ff9f4daa797ed6e38ed64bf6a1f010000000000000000831061315d577a184f03e93ff9f4daa797ed6e38ed64bf6a1f010000000000000000838161315357613152614bea565b5b0492506040810190505b6d04ee2d6d415b85acef8100000000831061319a576d04ee2d6d415b85acef810000000083816131905761318f614bea565b5b0492506020810190505b662386f26fc1000083106131c957662386f26fc1000083816131bf576131be614bea565b5b0492506010810190505b6305f5e10083106131f2576305f5e10083816131e8576131e7614bea565b5b0492506008810190505b612710831061321757612710838161320d5761320c614bea565b5b0492506004810190505b6064831061323a57606483816132305761322f614bea565b5b0492506002810190505b600a8310613249576001810190505b80915050919050565b50805461325e906139eb565b6000825580601f10613270575061328f565b601f01602090049060005260206000209081019061328e9190613292565b5b50565b5b808211156132ab576000816000905550600101613293565b5090565b6000604051905090565b600080fd5b600080fd5b60007fffffffff0000000000000000000000000000000000000000000000000000000082169050919050565b6132f8816132c3565b811461330357600080fd5b50565b600081359050613315816132ef565b92915050565b600060208284031215613331576133306132b9565b5b600061333f84828501613306565b91505092915050565b60008115159050919050565b61335d81613348565b82525050565b60006020820190506133786000830184613354565b92915050565b6000819050919050565b6133918161337e565b811461339c57600080fd5b50565b6000813590506133ae81613388565b92915050565b6000602082840312156133ca576133c96132b9565b5b60006133d88482850161339f565b91505092915050565b600081519050919050565b600082825260208201905092915050565b60005b8381101561341b578082015181840152602081019050613400565b60008484015250505050565b6000601f19601f8301169050919050565b6000613443826133e1565b61344d81856133ec565b935061345d8185602086016133fd565b61346681613427565b840191505092915050565b6000602082019050818103600083015261348b8184613438565b905092915050565b600073ffffffffffffffffffffffffffffffffffffffff82169050919050565b60006134be82613493565b9050919050565b6134ce816134b3565b82525050565b60006020820190506134e960008301846134c5565b92915050565b6134f8816134b3565b811461350357600080fd5b50565b600081359050613515816134ef565b92915050565b60008060408385031215613532576135316132b9565b5b600061354085828601613506565b92505060206135518582860161339f565b9150509250929050565b6135648161337e565b82525050565b600060408201905061357f600083018561355b565b61358c60208301846134c5565b9392505050565b6000806000606084860312156135ac576135ab6132b9565b5b60006135ba86828701613506565b93505060206135cb86828701613506565b92505060406135dc8682870161339f565b9150509250925092565b6000602082840312156135fc576135fb6132b9565b5b600061360a84828501613506565b91505092915050565b6000602082019050613628600083018461355b565b92915050565b61363781613348565b811461364257600080fd5b50565b6000813590506136548161362e565b92915050565b60008060408385031215613671576136706132b9565b5b600061367f85828601613506565b925050602061369085828601613645565b9150509250929050565b600080fd5b600080fd5b7f4e487b7100000000000000000000000000000000000000000000000000000000600052604160045260246000fd5b6136dc82613427565b810181811067ffffffffffffffff821117156136fb576136fa6136a4565b5b80604052505050565b600061370e6132af565b905061371a82826136d3565b919050565b600067ffffffffffffffff82111561373a576137396136a4565b5b61374382613427565b9050602081019050919050565b82818337600083830152505050565b600061377261376d8461371f565b613704565b90508281526020810184848401111561378e5761378d61369f565b5b613799848285613750565b509392505050565b600082601f8301126137b6576137b561369a565b5b81356137c684826020860161375f565b91505092915050565b600080600080608085870312156137e9576137e86132b9565b5b60006137f787828801613506565b945050602061380887828801613506565b93505060406138198782880161339f565b925050606085013567ffffffffffffffff81111561383a576138396132be565b5b613846878288016137a1565b91505092959194509250565b60008060408385031215613869576138686132b9565b5b60006138778582860161339f565b92505060206138888582860161339f565b9150509250929050565b600067ffffffffffffffff8211156138ad576138ac6136a4565b5b6138b682613427565b9050602081019050919050565b60006138d66138d184613892565b613704565b9050828152602081018484840111156138f2576138f161369f565b5b6138fd848285613750565b509392505050565b600082601f83011261391a5761391961369a565b5b813561392a8482602086016138c3565b91505092915050565b600060208284031215613949576139486132b9565b5b600082013567ffffffffffffffff811115613967576139666132be565b5b61397384828501613905565b91505092915050565b60008060408385031215613993576139926132b9565b5b60006139a185828601613506565b92505060206139b285828601613506565b9150509250929050565b7f4e487b7100000000000000000000000000000000000000000000000000000000600052602260045260246000fd5b60006002820490506001821680613a0357607f821691505b602082108103613a1657613a156139bc565b5b50919050565b7f4552433732313a20617070726f76616c20746f2063757272656e74206f776e6560008201527f7200000000000000000000000000000000000000000000000000000000000000602082015250565b6000613a786021836133ec565b9150613a8382613a1c565b604082019050919050565b60006020820190508181036000830152613aa781613a6b565b9050919050565b7f4552433732313a20617070726f76652063616c6c6572206973206e6f7420746f60008201527f6b656e206f776e6572206f7220617070726f76656420666f7220616c6c000000602082015250565b6000613b0a603d836133ec565b9150613b1582613aae565b604082019050919050565b60006020820190508181036000830152613b3981613afd565b9050919050565b7f4552433732313a2063616c6c6572206973206e6f7420746f6b656e206f776e6560008201527f72206f7220617070726f76656400000000000000000000000000000000000000602082015250565b6000613b9c602d836133ec565b9150613ba782613b40565b604082019050919050565b60006020820190508181036000830152613bcb81613b8f565b9050919050565b7f41737365744d61726b65743a2062616c616e6365206973207a65726f00000000600082015250565b6000613c08601c836133ec565b9150613c1382613bd2565b602082019050919050565b60006020820190508181036000830152613c3781613bfb565b9050919050565b7f41737365744d61726b65743a206173736574206e6f74206c697374656420666f60008201527f722073616c650000000000000000000000000000000000000000000000000000602082015250565b6000613c9a6026836133ec565b9150613ca582613c3e565b604082019050919050565b60006020820190508181036000830152613cc981613c8d565b9050919050565b7f41737365744d61726b65743a20796f75277265206e6f742074686520636f6c6c60008201527f6563746f72000000000000000000000000000000000000000000000000000000602082015250565b6000613d2c6025836133ec565b9150613d3782613cd0565b604082019050919050565b60006020820190508181036000830152613d5b81613d1f565b9050919050565b50565b6000613d726000836133ec565b9150613d7d82613d62565b600082019050919050565b6000819050919050565b6000819050919050565b6000613db7613db2613dad84613d88565b613d92565b61337e565b9050919050565b613dc781613d9c565b82525050565b600060a082019050613de2600083018761355b565b613def60208301866134c5565b613dfc60408301856134c5565b8181036060830152613e0d81613d65565b9050613e1c6080830184613dbe565b95945050505050565b7f41737365744d61726b65743a20796f75277265206e6f7420746865206372656160008201527f746f720000000000000000000000000000000000000000000000000000000000602082015250565b6000613e816023836133ec565b9150613e8c82613e25565b604082019050919050565b60006020820190508181036000830152613eb081613e74565b9050919050565b7f41737365744d61726b65743a20796f75277265206e6f7420746865206372656160008201527f746f740000000000000000000000000000000000000000000000000000000000602082015250565b6000613f136023836133ec565b9150613f1e82613eb7565b604082019050919050565b60006020820190508181036000830152613f4281613f06565b9050919050565b7f41737365744d61726b65743a20696e636f727265637420707269636500000000600082015250565b6000613f7f601c836133ec565b9150613f8a82613f49565b602082019050919050565b60006020820190508181036000830152613fae81613f72565b9050919050565b600081519050613fc4816134ef565b92915050565b600060208284031215613fe057613fdf6132b9565b5b6000613fee84828501613fb5565b91505092915050565b600060608201905061400c60008301866134c5565b61401960208301856134c5565b614026604083018461355b565b949350505050565b7f4552433732313a20696e76616c696420746f6b656e2049440000000000000000600082015250565b60006140646018836133ec565b915061406f8261402e565b602082019050919050565b6000602082019050818103600083015261409381614057565b9050919050565b7f4552433732313a2061646472657373207a65726f206973206e6f74206120766160008201527f6c6964206f776e65720000000000000000000000000000000000000000000000602082015250565b60006140f66029836133ec565b91506141018261409a565b604082019050919050565b60006020820190508181036000830152614125816140e9565b9050919050565b7f496e646578206f7574206f6620626f756e647300000000000000000000000000600082015250565b60006141626013836133ec565b915061416d8261412c565b602082019050919050565b6000602082019050818103600083015261419181614155565b9050919050565b7f4e487b7100000000000000000000000000000000000000000000000000000000600052603260045260246000fd5b600081905092915050565b60006141dd826133e1565b6141e781856141c7565b93506141f78185602086016133fd565b80840191505092915050565b600061420f82856141d2565b915061421b82846141d2565b91508190509392505050565b7f41737365744d61726b65743a205072696365206d757374206265206d6f72652060008201527f7468616e20300000000000000000000000000000000000000000000000000000602082015250565b60006142836026836133ec565b915061428e82614227565b604082019050919050565b600060208201905081810360008301526142b281614276565b9050919050565b7f41737365744d61726b65743a20596f75277265206e6f7420746865206f776e6560008201527f72206f662074686973204e465400000000000000000000000000000000000000602082015250565b6000614315602d836133ec565b9150614320826142b9565b604082019050919050565b6000602082019050818103600083015261434481614308565b9050919050565b60008190508160005260206000209050919050565b6000815461436d816139eb565b61437781866133ec565b9450600182166000811461439257600181146143a8576143db565b60ff1983168652811515602002860193506143db565b6143b18561434b565b60005b838110156143d3578154818901526001820191506020810190506143b4565b808801955050505b50505092915050565b600060a0820190506143f9600083018861355b565b61440660208301876134c5565b61441360408301866134c5565b81810360608301526144258185614360565b9050614434608083018461355b565b9695505050505050565b60006020601f8301049050919050565b600082821b905092915050565b60006008830261448b7fffffffffffffffffffffffffffffffffffffffffffffffffffffffffffffffff8261444e565b614495868361444e565b95508019841693508086168417925050509392505050565b60006144c86144c36144be8461337e565b613d92565b61337e565b9050919050565b6000819050919050565b6144e2836144ad565b6144f66144ee826144cf565b84845461445b565b825550505050565b600090565b61450b6144fe565b6145168184846144d9565b505050565b5b8181101561453a5761452f600082614503565b60018101905061451c565b5050565b601f82111561457f576145508161434b565b6145598461443e565b81016020851015614568578190505b61457c6145748561443e565b83018261451b565b50505b505050565b600082821c905092915050565b60006145a260001984600802614584565b1980831691505092915050565b60006145bb8383614591565b9150826002028217905092915050565b6145d4826133e1565b67ffffffffffffffff8111156145ed576145ec6136a4565b5b6145f782546139eb565b61460282828561453e565b600060209050601f8311600181146146355760008415614623578287015190505b61462d85826145af565b865550614695565b601f1984166146438661434b565b60005b8281101561466b57848901518255600182019150602085019450602081019050614646565b868310156146885784890151614684601f891682614591565b8355505b6001600288020188555050505b505050505050565b7f4e487b7100000000000000000000000000000000000000000000000000000000600052601160045260246000fd5b60006146d78261337e565b91506146e28361337e565b92508282039050818111156146fa576146f961469d565b5b92915050565b6000604082019050614715600083018561355b565b81810360208301526147278184613438565b90509392505050565b600060a082019050614745600083018861355b565b61475260208301876134c5565b61475f60408301866134c5565b81810360608301526147718185613438565b90506147806080830184613dbe565b9695505050505050565b7f4f776e61626c653a206e6577206f776e657220697320746865207a65726f206160008201527f6464726573730000000000000000000000000000000000000000000000000000602082015250565b60006147e66026836133ec565b91506147f18261478a565b604082019050919050565b60006020820190508181036000830152614815816147d9565b9050919050565b7f41737365744d61726b65743a20596f75277265206e6f7420746865206372656160008201527f746f72206f662074686973204e46540000000000000000000000000000000000602082015250565b6000614878602f836133ec565b91506148838261481c565b604082019050919050565b600060208201905081810360008301526148a78161486b565b9050919050565b7f4552433732313a207472616e736665722066726f6d20696e636f72726563742060008201527f6f776e6572000000000000000000000000000000000000000000000000000000602082015250565b600061490a6025836133ec565b9150614915826148ae565b604082019050919050565b60006020820190508181036000830152614939816148fd565b9050919050565b7f4552433732313a207472616e7366657220746f20746865207a65726f2061646460008201527f7265737300000000000000000000000000000000000000000000000000000000602082015250565b600061499c6024836133ec565b91506149a782614940565b604082019050919050565b600060208201905081810360008301526149cb8161498f565b9050919050565b7f4f776e61626c653a2063616c6c6572206973206e6f7420746865206f776e6572600082015250565b6000614a086020836133ec565b9150614a13826149d2565b602082019050919050565b60006020820190508181036000830152614a37816149fb565b9050919050565b7f4552433732313a206d696e7420746f20746865207a65726f2061646472657373600082015250565b6000614a746020836133ec565b9150614a7f82614a3e565b602082019050919050565b60006020820190508181036000830152614aa381614a67565b9050919050565b7f4552433732313a20746f6b656e20616c7265616479206d696e74656400000000600082015250565b6000614ae0601c836133ec565b9150614aeb82614aaa565b602082019050919050565b60006020820190508181036000830152614b0f81614ad3565b9050919050565b7f45524337323155524953746f726167653a2055524920736574206f66206e6f6e60008201527f6578697374656e7420746f6b656e000000000000000000000000000000000000602082015250565b6000614b72602e836133ec565b9150614b7d82614b16565b604082019050919050565b60006020820190508181036000830152614ba181614b65565b9050919050565b6000614bb38261337e565b9150614bbe8361337e565b9250828202614bcc8161337e565b91508282048414831517614be357614be261469d565b5b5092915050565b7f4e487b7100000000000000000000000000000000000000000000000000000000600052601260045260246000fd5b6000614c248261337e565b9150614c2f8361337e565b925082614c3f57614c3e614bea565b5b828204905092915050565b7f4552433732313a20617070726f766520746f2063616c6c657200000000000000600082015250565b6000614c806019836133ec565b9150614c8b82614c4a565b602082019050919050565b60006020820190508181036000830152614caf81614c73565b9050919050565b7f4552433732313a207472616e7366657220746f206e6f6e20455243373231526560008201527f63656976657220696d706c656d656e7465720000000000000000000000000000602082015250565b6000614d126032836133ec565b9150614d1d82614cb6565b604082019050919050565b60006020820190508181036000830152614d4181614d05565b9050919050565b600081519050919050565b600082825260208201905092915050565b6000614d6f82614d48565b614d798185614d53565b9350614d898185602086016133fd565b614d9281613427565b840191505092915050565b6000608082019050614db260008301876134c5565b614dbf60208301866134c5565b614dcc604083018561355b565b8181036060830152614dde8184614d64565b905095945050505050565b600081519050614df8816132ef565b92915050565b600060208284031215614e1457614e136132b9565b5b6000614e2284828501614de9565b9150509291505056fea264697066735822122063d7c2a44402fedf1c616f5b5fb3cb0db6bea0b4ec08717811408e77790f366864736f6c63430008130033",
  "linkReferences": {},
  "deployedLinkReferences": {}
}