{
  "_format": "hh-sol-artifact-1",
  "contractName": "AssetMarket",
  "sourceName": "contracts/AssetMarket.sol",
  "abi": [
    {
      "inputs": [],
      "stateMutability": "nonpayable",
      "type": "constructor"
    },
    {
      "anonymous": false,
      "inputs": [
        {
          "indexed": true,
          "internalType": "uint256",
          "name": "itemId",
          "type": "uint256"
        },
        {
          "indexed": true,
          "internalType": "address",
          "name": "itemContract",
          "type": "address"
        },
        {
          "indexed": true,
          "internalType": "uint256",
          "name": "tokenId",
          "type": "uint256"
        },
        {
          "indexed": false,
          "internalType": "address",
          "name": "seller",
          "type": "address"
        },
        {
          "indexed": false,
          "internalType": "address",
          "name": "owner",
          "type": "address"
        },
        {
          "indexed": false,
          "internalType": "uint256",
          "name": "price",
          "type": "uint256"
        },
        {
          "indexed": false,
          "internalType": "bool",
          "name": "sold",
          "type": "bool"
        }
      ],
      "name": "MarketItemCreated",
      "type": "event"
    },
    {
      "inputs": [
        {
          "internalType": "address",
          "name": "itemContract",
          "type": "address"
        },
        {
          "internalType": "uint256",
          "name": "tokenId",
          "type": "uint256"
        },
        {
          "internalType": "uint256",
          "name": "price",
          "type": "uint256"
        }
      ],
      "name": "createMarketItem",
      "outputs": [],
      "stateMutability": "payable",
      "type": "function"
    },
    {
      "inputs": [
        {
          "internalType": "address",
          "name": "itemContract",
          "type": "address"
        },
        {
          "internalType": "uint256",
          "name": "itemId",
          "type": "uint256"
        }
      ],
      "name": "createMarketSale",
      "outputs": [],
      "stateMutability": "payable",
      "type": "function"
    },
    {
      "inputs": [],
      "name": "fetchItemsCreated",
      "outputs": [
        {
          "components": [
            {
              "internalType": "uint256",
              "name": "itemId",
              "type": "uint256"
            },
            {
              "internalType": "address",
              "name": "itemContract",
              "type": "address"
            },
            {
              "internalType": "uint256",
              "name": "tokenId",
              "type": "uint256"
            },
            {
              "internalType": "address payable",
              "name": "seller",
              "type": "address"
            },
            {
              "internalType": "address payable",
              "name": "owner",
              "type": "address"
            },
            {
              "internalType": "uint256",
              "name": "price",
              "type": "uint256"
            },
            {
              "internalType": "bool",
              "name": "sold",
              "type": "bool"
            }
          ],
          "internalType": "struct AssetMarket.MarketItem[]",
          "name": "",
          "type": "tuple[]"
        }
      ],
      "stateMutability": "view",
      "type": "function"
    },
    {
      "inputs": [],
      "name": "fetchMarketItems",
      "outputs": [
        {
          "components": [
            {
              "internalType": "uint256",
              "name": "itemId",
              "type": "uint256"
            },
            {
              "internalType": "address",
              "name": "itemContract",
              "type": "address"
            },
            {
              "internalType": "uint256",
              "name": "tokenId",
              "type": "uint256"
            },
            {
              "internalType": "address payable",
              "name": "seller",
              "type": "address"
            },
            {
              "internalType": "address payable",
              "name": "owner",
              "type": "address"
            },
            {
              "internalType": "uint256",
              "name": "price",
              "type": "uint256"
            },
            {
              "internalType": "bool",
              "name": "sold",
              "type": "bool"
            }
          ],
          "internalType": "struct AssetMarket.MarketItem[]",
          "name": "",
          "type": "tuple[]"
        }
      ],
      "stateMutability": "view",
      "type": "function"
    },
    {
      "inputs": [],
      "name": "fetchMyItems",
      "outputs": [
        {
          "components": [
            {
              "internalType": "uint256",
              "name": "itemId",
              "type": "uint256"
            },
            {
              "internalType": "address",
              "name": "itemContract",
              "type": "address"
            },
            {
              "internalType": "uint256",
              "name": "tokenId",
              "type": "uint256"
            },
            {
              "internalType": "address payable",
              "name": "seller",
              "type": "address"
            },
            {
              "internalType": "address payable",
              "name": "owner",
              "type": "address"
            },
            {
              "internalType": "uint256",
              "name": "price",
              "type": "uint256"
            },
            {
              "internalType": "bool",
              "name": "sold",
              "type": "bool"
            }
          ],
          "internalType": "struct AssetMarket.MarketItem[]",
          "name": "",
          "type": "tuple[]"
        }
      ],
      "stateMutability": "view",
      "type": "function"
    },
    {
      "inputs": [],
      "name": "getListingPrice",
      "outputs": [
        {
          "internalType": "uint256",
          "name": "",
          "type": "uint256"
        }
      ],
      "stateMutability": "view",
      "type": "function"
    }
  ],
  "bytecode": "0x60806040526658d15e1762800060045534801561001b57600080fd5b50600160008190555033600360006101000a81548173ffffffffffffffffffffffffffffffffffffffff021916908373ffffffffffffffffffffffffffffffffffffffff1602179055506118a5806100746000396000f3fe6080604052600436106100555760003560e01c80630f08efe01461005a57806312e855851461008557806315c9ae10146100b057806358eb2df5146100db578063c23b139e146100f7578063f064c32e14610113575b600080fd5b34801561006657600080fd5b5061006f61013e565b60405161007c919061134f565b60405180910390f35b34801561009157600080fd5b5061009a61041d565b6040516100a79190611380565b60405180910390f35b3480156100bc57600080fd5b506100c5610427565b6040516100d2919061134f565b60405180910390f35b6100f560048036038101906100f091906113f8565b610789565b005b610111600480360381019061010c919061144b565b610aa7565b005b34801561011f57600080fd5b50610128610d1a565b604051610135919061134f565b60405180910390f35b6060600061014c600161107e565b9050600061015a600261107e565b610164600161107e565b61016e91906114ba565b90506000808267ffffffffffffffff81111561018d5761018c6114ee565b5b6040519080825280602002602001820160405280156101c657816020015b6101b36110fb565b8152602001906001900390816101ab5790505b50905060005b8481101561041257600073ffffffffffffffffffffffffffffffffffffffff16600560006001846101fd919061151d565b815260200190815260200160002060040160009054906101000a900473ffffffffffffffffffffffffffffffffffffffff1673ffffffffffffffffffffffffffffffffffffffff16036103ff5760006005600060018461025d919061151d565b81526020019081526020016000206000015490506000600560008381526020019081526020016000209050806040518060e0016040529081600082015481526020016001820160009054906101000a900473ffffffffffffffffffffffffffffffffffffffff1673ffffffffffffffffffffffffffffffffffffffff1673ffffffffffffffffffffffffffffffffffffffff168152602001600282015481526020016003820160009054906101000a900473ffffffffffffffffffffffffffffffffffffffff1673ffffffffffffffffffffffffffffffffffffffff1673ffffffffffffffffffffffffffffffffffffffff1681526020016004820160009054906101000a900473ffffffffffffffffffffffffffffffffffffffff1673ffffffffffffffffffffffffffffffffffffffff1673ffffffffffffffffffffffffffffffffffffffff168152602001600582015481526020016006820160009054906101000a900460ff1615151515815250508486815181106103e2576103e1611551565b5b60200260200101819052506001856103fa919061151d565b945050505b808061040a90611580565b9150506101cc565b508094505050505090565b6000600454905090565b60606000610435600161107e565b905060008060005b838110156104dd573373ffffffffffffffffffffffffffffffffffffffff166005600060018461046d919061151d565b815260200190815260200160002060040160009054906101000a900473ffffffffffffffffffffffffffffffffffffffff1673ffffffffffffffffffffffffffffffffffffffff16036104ca576001836104c7919061151d565b92505b80806104d590611580565b91505061043d565b5060008267ffffffffffffffff8111156104fa576104f96114ee565b5b60405190808252806020026020018201604052801561053357816020015b6105206110fb565b8152602001906001900390816105185790505b50905060005b8481101561077e573373ffffffffffffffffffffffffffffffffffffffff1660056000600184610569919061151d565b815260200190815260200160002060040160009054906101000a900473ffffffffffffffffffffffffffffffffffffffff1673ffffffffffffffffffffffffffffffffffffffff160361076b576000600560006001846105c9919061151d565b81526020019081526020016000206000015490506000600560008381526020019081526020016000209050806040518060e0016040529081600082015481526020016001820160009054906101000a900473ffffffffffffffffffffffffffffffffffffffff1673ffffffffffffffffffffffffffffffffffffffff1673ffffffffffffffffffffffffffffffffffffffff168152602001600282015481526020016003820160009054906101000a900473ffffffffffffffffffffffffffffffffffffffff1673ffffffffffffffffffffffffffffffffffffffff1673ffffffffffffffffffffffffffffffffffffffff1681526020016004820160009054906101000a900473ffffffffffffffffffffffffffffffffffffffff1673ffffffffffffffffffffffffffffffffffffffff1673ffffffffffffffffffffffffffffffffffffffff168152602001600582015481526020016006820160009054906101000a900460ff16151515158152505084868151811061074e5761074d611551565b5b6020026020010181905250600185610766919061151d565b945050505b808061077690611580565b915050610539565b508094505050505090565b61079161108c565b600081116107d4576040517f08c379a00000000000000000000000000000000000000000000000000000000081526004016107cb90611625565b60405180910390fd5b6004543414610818576040517f08c379a000000000000000000000000000000000000000000000000000000000815260040161080f906116b7565b60405180910390fd5b61082260016110db565b600061082e600161107e565b90506040518060e001604052808281526020018573ffffffffffffffffffffffffffffffffffffffff1681526020018481526020013373ffffffffffffffffffffffffffffffffffffffff168152602001600073ffffffffffffffffffffffffffffffffffffffff16815260200183815260200160001515815250600560008381526020019081526020016000206000820151816000015560208201518160010160006101000a81548173ffffffffffffffffffffffffffffffffffffffff021916908373ffffffffffffffffffffffffffffffffffffffff1602179055506040820151816002015560608201518160030160006101000a81548173ffffffffffffffffffffffffffffffffffffffff021916908373ffffffffffffffffffffffffffffffffffffffff16021790555060808201518160040160006101000a81548173ffffffffffffffffffffffffffffffffffffffff021916908373ffffffffffffffffffffffffffffffffffffffff16021790555060a0820151816005015560c08201518160060160006101000a81548160ff0219169083151502179055509050508373ffffffffffffffffffffffffffffffffffffffff166323b872dd3330866040518463ffffffff1660e01b8152600401610a0f939291906116e6565b600060405180830381600087803b158015610a2957600080fd5b505af1158015610a3d573d6000803e3d6000fd5b50505050828473ffffffffffffffffffffffffffffffffffffffff16827f045dfa01dcba2b36aba1d3dc4a874f4b0c5d2fbeb8d2c4b34a7d88c8d8f929d1336000876000604051610a91949392919061172c565b60405180910390a450610aa26110f1565b505050565b610aaf61108c565b600060056000838152602001908152602001600020600501549050600060056000848152602001908152602001600020600201549050813414610b27576040517f08c379a0000000000000000000000000000000000000000000000000000000008152600401610b1e906117e3565b60405180910390fd5b6005600084815260200190815260200160002060030160009054906101000a900473ffffffffffffffffffffffffffffffffffffffff1673ffffffffffffffffffffffffffffffffffffffff166108fc349081150290604051600060405180830381858888f19350505050158015610ba3573d6000803e3d6000fd5b508373ffffffffffffffffffffffffffffffffffffffff166323b872dd3033846040518463ffffffff1660e01b8152600401610be1939291906116e6565b600060405180830381600087803b158015610bfb57600080fd5b505af1158015610c0f573d6000803e3d6000fd5b50505050336005600085815260200190815260200160002060040160006101000a81548173ffffffffffffffffffffffffffffffffffffffff021916908373ffffffffffffffffffffffffffffffffffffffff16021790555060016005600085815260200190815260200160002060060160006101000a81548160ff021916908315150217905550610ca160026110db565b600360009054906101000a900473ffffffffffffffffffffffffffffffffffffffff1673ffffffffffffffffffffffffffffffffffffffff166108fc6004549081150290604051600060405180830381858888f19350505050158015610d0b573d6000803e3d6000fd5b505050610d166110f1565b5050565b60606000610d28600161107e565b905060008060005b83811015610dd157600073ffffffffffffffffffffffffffffffffffffffff1660056000600184610d61919061151d565b815260200190815260200160002060030160009054906101000a900473ffffffffffffffffffffffffffffffffffffffff1673ffffffffffffffffffffffffffffffffffffffff1603610dbe57600183610dbb919061151d565b92505b8080610dc990611580565b915050610d30565b5060008267ffffffffffffffff811115610dee57610ded6114ee565b5b604051908082528060200260200182016040528015610e2757816020015b610e146110fb565b815260200190600190039081610e0c5790505b50905060005b8481101561107357600073ffffffffffffffffffffffffffffffffffffffff1660056000600184610e5e919061151d565b815260200190815260200160002060030160009054906101000a900473ffffffffffffffffffffffffffffffffffffffff1673ffffffffffffffffffffffffffffffffffffffff160361106057600060056000600184610ebe919061151d565b81526020019081526020016000206000015490506000600560008381526020019081526020016000209050806040518060e0016040529081600082015481526020016001820160009054906101000a900473ffffffffffffffffffffffffffffffffffffffff1673ffffffffffffffffffffffffffffffffffffffff1673ffffffffffffffffffffffffffffffffffffffff168152602001600282015481526020016003820160009054906101000a900473ffffffffffffffffffffffffffffffffffffffff1673ffffffffffffffffffffffffffffffffffffffff1673ffffffffffffffffffffffffffffffffffffffff1681526020016004820160009054906101000a900473ffffffffffffffffffffffffffffffffffffffff1673ffffffffffffffffffffffffffffffffffffffff1673ffffffffffffffffffffffffffffffffffffffff168152602001600582015481526020016006820160009054906101000a900460ff16151515158152505084868151811061104357611042611551565b5b602002602001018190525060018561105b919061151d565b945050505b808061106b90611580565b915050610e2d565b508094505050505090565b600081600001549050919050565b6002600054036110d1576040517f08c379a00000000000000000000000000000000000000000000000000000000081526004016110c89061184f565b60405180910390fd5b6002600081905550565b6001816000016000828254019250508190555050565b6001600081905550565b6040518060e0016040528060008152602001600073ffffffffffffffffffffffffffffffffffffffff16815260200160008152602001600073ffffffffffffffffffffffffffffffffffffffff168152602001600073ffffffffffffffffffffffffffffffffffffffff168152602001600081526020016000151581525090565b600081519050919050565b600082825260208201905092915050565b6000819050602082019050919050565b6000819050919050565b6111bb816111a8565b82525050565b600073ffffffffffffffffffffffffffffffffffffffff82169050919050565b60006111ec826111c1565b9050919050565b6111fc816111e1565b82525050565b600061120d826111c1565b9050919050565b61121d81611202565b82525050565b60008115159050919050565b61123881611223565b82525050565b60e08201600082015161125460008501826111b2565b50602082015161126760208501826111f3565b50604082015161127a60408501826111b2565b50606082015161128d6060850182611214565b5060808201516112a06080850182611214565b5060a08201516112b360a08501826111b2565b5060c08201516112c660c085018261122f565b50505050565b60006112d8838361123e565b60e08301905092915050565b6000602082019050919050565b60006112fc8261117c565b6113068185611187565b935061131183611198565b8060005b8381101561134257815161132988826112cc565b9750611334836112e4565b925050600181019050611315565b5085935050505092915050565b6000602082019050818103600083015261136981846112f1565b905092915050565b61137a816111a8565b82525050565b60006020820190506113956000830184611371565b92915050565b600080fd5b6113a9816111e1565b81146113b457600080fd5b50565b6000813590506113c6816113a0565b92915050565b6113d5816111a8565b81146113e057600080fd5b50565b6000813590506113f2816113cc565b92915050565b6000806000606084860312156114115761141061139b565b5b600061141f868287016113b7565b9350506020611430868287016113e3565b9250506040611441868287016113e3565b9150509250925092565b600080604083850312156114625761146161139b565b5b6000611470858286016113b7565b9250506020611481858286016113e3565b9150509250929050565b7f4e487b7100000000000000000000000000000000000000000000000000000000600052601160045260246000fd5b60006114c5826111a8565b91506114d0836111a8565b92508282039050818111156114e8576114e761148b565b5b92915050565b7f4e487b7100000000000000000000000000000000000000000000000000000000600052604160045260246000fd5b6000611528826111a8565b9150611533836111a8565b925082820190508082111561154b5761154a61148b565b5b92915050565b7f4e487b7100000000000000000000000000000000000000000000000000000000600052603260045260246000fd5b600061158b826111a8565b91507fffffffffffffffffffffffffffffffffffffffffffffffffffffffffffffffff82036115bd576115bc61148b565b5b600182019050919050565b600082825260208201905092915050565b7f5072696365206d757374206265206174206c6561737420312077656900000000600082015250565b600061160f601c836115c8565b915061161a826115d9565b602082019050919050565b6000602082019050818103600083015261163e81611602565b9050919050565b7f5072696365206d75737420626520657175616c20746f206c697374696e67207060008201527f7269636500000000000000000000000000000000000000000000000000000000602082015250565b60006116a16024836115c8565b91506116ac82611645565b604082019050919050565b600060208201905081810360008301526116d081611694565b9050919050565b6116e0816111e1565b82525050565b60006060820190506116fb60008301866116d7565b61170860208301856116d7565b6117156040830184611371565b949350505050565b61172681611223565b82525050565b600060808201905061174160008301876116d7565b61174e60208301866116d7565b61175b6040830185611371565b611768606083018461171d565b95945050505050565b7f506c65617365207375626d6974207468652061736b696e67207072696365207460008201527f6f20707572636861736500000000000000000000000000000000000000000000602082015250565b60006117cd602a836115c8565b91506117d882611771565b604082019050919050565b600060208201905081810360008301526117fc816117c0565b9050919050565b7f5265656e7472616e637947756172643a207265656e7472616e742063616c6c00600082015250565b6000611839601f836115c8565b915061184482611803565b602082019050919050565b600060208201905081810360008301526118688161182c565b905091905056fea2646970667358221220336e97cb641c92729990128d47e1d9138479e74e12a4f84a1a7d1495d536cc3564736f6c63430008130033",
  "linkReferences": {},
  "deployedLinkReferences": {}
}